{
  "contractName": "CertiGuard",
  "abi": [
    {
      "anonymous": false,
      "inputs": [
        {
          "indexed": false,
          "internalType": "uint256",
          "name": "certificateId",
          "type": "uint256"
        },
        {
          "indexed": false,
          "internalType": "uint256",
          "name": "studentId",
          "type": "uint256"
        },
        {
          "indexed": false,
          "internalType": "string",
          "name": "studentName",
          "type": "string"
        },
        {
          "indexed": false,
          "internalType": "string",
          "name": "studentDOB",
          "type": "string"
        },
        {
          "indexed": false,
          "internalType": "string",
          "name": "studentEmail",
          "type": "string"
        },
        {
          "indexed": false,
          "internalType": "string",
          "name": "course",
          "type": "string"
        },
        {
          "indexed": false,
          "internalType": "uint256",
          "name": "issueDate",
          "type": "uint256"
        },
        {
          "indexed": false,
          "internalType": "uint256",
          "name": "universityId",
          "type": "uint256"
        },
        {
          "indexed": false,
          "internalType": "string",
          "name": "universityName",
          "type": "string"
        },
        {
          "indexed": false,
          "internalType": "string",
          "name": "universityLocation",
          "type": "string"
        },
        {
          "indexed": false,
          "internalType": "string",
          "name": "certificateHash",
          "type": "string"
        }
      ],
      "name": "CertificateCreated",
      "type": "event"
    },
    {
      "anonymous": false,
      "inputs": [
        {
          "indexed": false,
          "internalType": "uint256",
          "name": "certificateId",
          "type": "uint256"
        },
        {
          "indexed": false,
          "internalType": "uint256",
          "name": "studentId",
          "type": "uint256"
        },
        {
          "indexed": false,
          "internalType": "string",
          "name": "studentName",
          "type": "string"
        },
        {
          "indexed": false,
          "internalType": "string",
          "name": "studentDOB",
          "type": "string"
        },
        {
          "indexed": false,
          "internalType": "string",
          "name": "studentEmail",
          "type": "string"
        },
        {
          "indexed": false,
          "internalType": "string",
          "name": "course",
          "type": "string"
        },
        {
          "indexed": false,
          "internalType": "uint256",
          "name": "issueDate",
          "type": "uint256"
        },
        {
          "indexed": false,
          "internalType": "uint256",
          "name": "universityId",
          "type": "uint256"
        },
        {
          "indexed": false,
          "internalType": "string",
          "name": "universityName",
          "type": "string"
        },
        {
          "indexed": false,
          "internalType": "string",
          "name": "universityLocation",
          "type": "string"
        },
        {
          "indexed": false,
          "internalType": "bool",
          "name": "valid",
          "type": "bool"
        }
      ],
      "name": "CertificateVerified",
      "type": "event"
    },
    {
      "inputs": [],
      "name": "certificateCount",
      "outputs": [
        {
          "internalType": "uint256",
          "name": "",
          "type": "uint256"
        }
      ],
      "stateMutability": "view",
      "type": "function",
      "constant": true
    },
    {
      "inputs": [
        {
          "internalType": "uint256",
          "name": "",
          "type": "uint256"
        }
      ],
      "name": "certificates",
      "outputs": [
        {
          "internalType": "uint256",
          "name": "certificateId",
          "type": "uint256"
        },
        {
          "internalType": "uint256",
          "name": "studentId",
          "type": "uint256"
        },
        {
          "internalType": "string",
          "name": "studentName",
          "type": "string"
        },
        {
          "internalType": "string",
          "name": "studentDOB",
          "type": "string"
        },
        {
          "internalType": "string",
          "name": "studentEmail",
          "type": "string"
        },
        {
          "internalType": "string",
          "name": "course",
          "type": "string"
        },
        {
          "internalType": "uint256",
          "name": "issueDate",
          "type": "uint256"
        },
        {
          "internalType": "uint256",
          "name": "universityId",
          "type": "uint256"
        },
        {
          "internalType": "string",
          "name": "universityName",
          "type": "string"
        },
        {
          "internalType": "string",
          "name": "universityLocation",
          "type": "string"
        },
        {
          "internalType": "string",
          "name": "certificateHash",
          "type": "string"
        },
        {
          "internalType": "bool",
          "name": "isValid",
          "type": "bool"
        }
      ],
      "stateMutability": "view",
      "type": "function",
      "constant": true
    },
    {
      "inputs": [
        {
          "internalType": "uint256",
          "name": "_studentId",
          "type": "uint256"
        },
        {
          "internalType": "string",
          "name": "_studentName",
          "type": "string"
        },
        {
          "internalType": "string",
          "name": "_studentDOB",
          "type": "string"
        },
        {
          "internalType": "string",
          "name": "_studentEmail",
          "type": "string"
        },
        {
          "internalType": "string",
          "name": "_course",
          "type": "string"
        },
        {
          "internalType": "uint256",
          "name": "_issueDate",
          "type": "uint256"
        },
        {
          "internalType": "uint256",
          "name": "_universityId",
          "type": "uint256"
        },
        {
          "internalType": "string",
          "name": "_universityName",
          "type": "string"
        },
        {
          "internalType": "string",
          "name": "_universityLocation",
          "type": "string"
        },
        {
          "internalType": "string",
          "name": "_certificateHash",
          "type": "string"
        }
      ],
      "name": "addCertificate",
      "outputs": [],
      "stateMutability": "nonpayable",
      "type": "function"
    },
    {
      "inputs": [
        {
          "internalType": "uint256",
          "name": "_certificateId",
          "type": "uint256"
        },
        {
          "internalType": "string",
          "name": "_certificateHash",
          "type": "string"
        }
      ],
      "name": "verifyCertificate",
      "outputs": [
        {
          "internalType": "bool",
          "name": "",
          "type": "bool"
        }
      ],
      "stateMutability": "view",
      "type": "function",
      "constant": true
    }
  ],
  "bytecode": "0x608060405234801561001057600080fd5b50611131806100206000396000f3fe608060405234801561001057600080fd5b506004361061004c5760003560e01c806308d5fd121461005157806352d7b89c14610079578063663b3e221461009057806387fd2461146100bb575b600080fd5b61006461005f366004610c02565b6100d0565b60405190151581526020015b60405180910390f35b61008260015481565b604051908152602001610070565b6100a361009e366004610c49565b610597565b6040516100709c9b9a99989796959493929190610cb2565b6100ce6100c9366004610d7c565b6109ab565b005b60008060008085815260200190815260200160002060405180610180016040529081600082015481526020016001820154815260200160028201805461011590610eb6565b80601f016020809104026020016040519081016040528092919081815260200182805461014190610eb6565b801561018e5780601f106101635761010080835404028352916020019161018e565b820191906000526020600020905b81548152906001019060200180831161017157829003601f168201915b505050505081526020016003820180546101a790610eb6565b80601f01602080910402602001604051908101604052809291908181526020018280546101d390610eb6565b80156102205780601f106101f557610100808354040283529160200191610220565b820191906000526020600020905b81548152906001019060200180831161020357829003601f168201915b5050505050815260200160048201805461023990610eb6565b80601f016020809104026020016040519081016040528092919081815260200182805461026590610eb6565b80156102b25780601f10610287576101008083540402835291602001916102b2565b820191906000526020600020905b81548152906001019060200180831161029557829003601f168201915b505050505081526020016005820180546102cb90610eb6565b80601f01602080910402602001604051908101604052809291908181526020018280546102f790610eb6565b80156103445780601f1061031957610100808354040283529160200191610344565b820191906000526020600020905b81548152906001019060200180831161032757829003601f168201915b50505050508152602001600682015481526020016007820154815260200160088201805461037190610eb6565b80601f016020809104026020016040519081016040528092919081815260200182805461039d90610eb6565b80156103ea5780601f106103bf576101008083540402835291602001916103ea565b820191906000526020600020905b8154815290600101906020018083116103cd57829003601f168201915b5050505050815260200160098201805461040390610eb6565b80601f016020809104026020016040519081016040528092919081815260200182805461042f90610eb6565b801561047c5780601f106104515761010080835404028352916020019161047c565b820191906000526020600020905b81548152906001019060200180831161045f57829003601f168201915b50505050508152602001600a8201805461049590610eb6565b80601f01602080910402602001604051908101604052809291908181526020018280546104c190610eb6565b801561050e5780601f106104e35761010080835404028352916020019161050e565b820191906000526020600020905b8154815290600101906020018083116104f157829003601f168201915b5050509183525050600b919091015460ff16151560209182015260405191925060009161053d91869101610ef0565b604051602081830303815290604052805190602001208261014001516040516020016105699190610ef0565b6040516020818303038152906040528051906020012014801561058e57508161016001515b95945050505050565b600060208190529081526040902080546001820154600283018054929391926105bf90610eb6565b80601f01602080910402602001604051908101604052809291908181526020018280546105eb90610eb6565b80156106385780601f1061060d57610100808354040283529160200191610638565b820191906000526020600020905b81548152906001019060200180831161061b57829003601f168201915b50505050509080600301805461064d90610eb6565b80601f016020809104026020016040519081016040528092919081815260200182805461067990610eb6565b80156106c65780601f1061069b576101008083540402835291602001916106c6565b820191906000526020600020905b8154815290600101906020018083116106a957829003601f168201915b5050505050908060040180546106db90610eb6565b80601f016020809104026020016040519081016040528092919081815260200182805461070790610eb6565b80156107545780601f1061072957610100808354040283529160200191610754565b820191906000526020600020905b81548152906001019060200180831161073757829003601f168201915b50505050509080600501805461076990610eb6565b80601f016020809104026020016040519081016040528092919081815260200182805461079590610eb6565b80156107e25780601f106107b7576101008083540402835291602001916107e2565b820191906000526020600020905b8154815290600101906020018083116107c557829003601f168201915b50505050509080600601549080600701549080600801805461080390610eb6565b80601f016020809104026020016040519081016040528092919081815260200182805461082f90610eb6565b801561087c5780601f106108515761010080835404028352916020019161087c565b820191906000526020600020905b81548152906001019060200180831161085f57829003601f168201915b50505050509080600901805461089190610eb6565b80601f01602080910402602001604051908101604052809291908181526020018280546108bd90610eb6565b801561090a5780601f106108df5761010080835404028352916020019161090a565b820191906000526020600020905b8154815290600101906020018083116108ed57829003601f168201915b50505050509080600a01805461091f90610eb6565b80601f016020809104026020016040519081016040528092919081815260200182805461094b90610eb6565b80156109985780601f1061096d57610100808354040283529160200191610998565b820191906000526020600020905b81548152906001019060200180831161097b57829003601f168201915b505050600b909301549192505060ff168c565b600180549060006109bb83610f0c565b919050555060405180610180016040528060015481526020018b81526020018a815260200189815260200188815260200187815260200186815260200185815260200184815260200183815260200182815260200160011515815250600080600154815260200190815260200160002060008201518160000155602082015181600101556040820151816002019081610a549190610f82565b5060608201516003820190610a699082610f82565b5060808201516004820190610a7e9082610f82565b5060a08201516005820190610a939082610f82565b5060c0820151600682015560e082015160078201556101008201516008820190610abd9082610f82565b506101208201516009820190610ad39082610f82565b50610140820151600a820190610ae99082610f82565b506101609190910151600b909101805460ff19169115159190911790556001546040517f317d965bc629141bfb48da709d2d41f206cfa486afa187bb68992e85c4cc81ed91610b4b918d908d908d908d908d908d908d908d908d908d90611042565b60405180910390a150505050505050505050565b634e487b7160e01b600052604160045260246000fd5b600082601f830112610b8657600080fd5b813567ffffffffffffffff80821115610ba157610ba1610b5f565b604051601f8301601f19908116603f01168101908282118183101715610bc957610bc9610b5f565b81604052838152866020858801011115610be257600080fd5b836020870160208301376000602085830101528094505050505092915050565b60008060408385031215610c1557600080fd5b82359150602083013567ffffffffffffffff811115610c3357600080fd5b610c3f85828601610b75565b9150509250929050565b600060208284031215610c5b57600080fd5b5035919050565b60005b83811015610c7d578181015183820152602001610c65565b50506000910152565b60008151808452610c9e816020860160208601610c62565b601f01601f19169290920160200192915050565b60006101808e83528d6020840152806040840152610cd28184018e610c86565b90508281036060840152610ce6818d610c86565b90508281036080840152610cfa818c610c86565b905082810360a0840152610d0e818b610c86565b90508860c08401528760e0840152828103610100840152610d2f8188610c86565b9050828103610120840152610d448187610c86565b9050828103610140840152610d598186610c86565b915050610d6b61016083018415159052565b9d9c50505050505050505050505050565b6000806000806000806000806000806101408b8d031215610d9c57600080fd5b8a35995060208b013567ffffffffffffffff80821115610dbb57600080fd5b610dc78e838f01610b75565b9a5060408d0135915080821115610ddd57600080fd5b610de98e838f01610b75565b995060608d0135915080821115610dff57600080fd5b610e0b8e838f01610b75565b985060808d0135915080821115610e2157600080fd5b610e2d8e838f01610b75565b975060a08d0135965060c08d0135955060e08d0135915080821115610e5157600080fd5b610e5d8e838f01610b75565b94506101008d0135915080821115610e7457600080fd5b610e808e838f01610b75565b93506101208d0135915080821115610e9757600080fd5b50610ea48d828e01610b75565b9150509295989b9194979a5092959850565b600181811c90821680610eca57607f821691505b602082108103610eea57634e487b7160e01b600052602260045260246000fd5b50919050565b60008251610f02818460208701610c62565b9190910192915050565b600060018201610f2c57634e487b7160e01b600052601160045260246000fd5b5060010190565b601f821115610f7d57600081815260208120601f850160051c81016020861015610f5a5750805b601f850160051c820191505b81811015610f7957828155600101610f66565b5050505b505050565b815167ffffffffffffffff811115610f9c57610f9c610b5f565b610fb081610faa8454610eb6565b84610f33565b602080601f831160018114610fe55760008415610fcd5750858301515b600019600386901b1c1916600185901b178555610f79565b600085815260208120601f198616915b8281101561101457888601518255948401946001909101908401610ff5565b50858210156110325787850151600019600388901b60f8161c191681555b5050505050600190811b01905550565b60006101608d83528c60208401528060408401526110628184018d610c86565b90508281036060840152611076818c610c86565b9050828103608084015261108a818b610c86565b905082810360a084015261109e818a610c86565b90508760c08401528660e08401528281036101008401526110bf8187610c86565b90508281036101208401526110d48186610c86565b90508281036101408401526110e98185610c86565b9e9d505050505050505050505050505056fea2646970667358221220e7b1bcb826a4e66890800fbc5e63f66b0109137bdce1d323247a97df58d6cbcd64736f6c63430008150033",
  "immutableReferences": {},
  "source": "pragma solidity ^0.8.0;\r\n\r\ncontract CertiGuard {\r\n    struct Certificate {\r\n        uint256 certificateId;\r\n        uint256 studentId;\r\n        string studentName;\r\n        string studentDOB;\r\n        string studentEmail;\r\n        string course;\r\n        uint256 issueDate;\r\n        uint256 universityId;\r\n        string universityName;\r\n        string universityLocation;\r\n        string certificateHash;\r\n        bool isValid;\r\n    }\r\n\r\n    mapping(uint256 => Certificate) public certificates;\r\n    uint256 public certificateCount;\r\n\r\n    event CertificateCreated(\r\n        uint256 certificateId,\r\n        uint256 studentId,\r\n        string studentName,\r\n        string studentDOB,\r\n        string studentEmail,\r\n        string course,\r\n        uint256 issueDate,\r\n        uint256 universityId,\r\n        string universityName,\r\n        string universityLocation,\r\n        string certificateHash\r\n    );\r\n\r\n    event CertificateVerified(\r\n        uint256 certificateId,\r\n        uint256 studentId,\r\n        string studentName,\r\n        string studentDOB,\r\n        string studentEmail,\r\n        string course,\r\n        uint256 issueDate,\r\n        uint256 universityId,\r\n        string universityName,\r\n        string universityLocation,\r\n        bool valid\r\n    );\r\n\r\n    function addCertificate(\r\n        uint256 _studentId,\r\n        string memory _studentName,\r\n        string memory _studentDOB,\r\n        string memory _studentEmail,\r\n        string memory _course,\r\n        uint256 _issueDate,\r\n        uint256 _universityId,\r\n        string memory _universityName,\r\n        string memory _universityLocation,\r\n        string memory _certificateHash\r\n    ) public {\r\n        certificateCount++;\r\n        certificates[certificateCount] = Certificate(\r\n            certificateCount,\r\n            _studentId,\r\n            _studentName,\r\n            _studentDOB,\r\n            _studentEmail,\r\n            _course,\r\n            _issueDate,\r\n            _universityId,\r\n            _universityName,\r\n            _universityLocation,\r\n            _certificateHash,\r\n            true\r\n        );\r\n        emit CertificateCreated(\r\n            certificateCount,\r\n            _studentId,\r\n            _studentName,\r\n            _studentDOB,\r\n            _studentEmail,\r\n            _course,\r\n            _issueDate,\r\n            _universityId,\r\n            _universityName,\r\n            _universityLocation,\r\n            _certificateHash\r\n        );\r\n    }\r\n\r\n    function verifyCertificate(uint256 _certificateId, string memory _certificateHash) public view returns (bool) {\r\n        Certificate memory cert = certificates[_certificateId];\r\n        bool isValid = keccak256(abi.encodePacked(cert.certificateHash)) == keccak256(abi.encodePacked(_certificateHash)) && cert.isValid;\r\n        return isValid;\r\n    }\r\n}\r\n",
  "sourcePath": "C:\\Users\\Nakshatra\\CertiGuardBlockchain\\contracts\\CertiGuard.sol",
  "compiler": {
    "name": "solc",
    "version": "0.8.21+commit.d9974bed.Emscripten.clang"
  },
  "schemaVersion": "3.4.16",
  "updatedAt": "2024-09-14T18:31:56.700Z",
  "networkType": "ethereum",
  "devdoc": {
    "kind": "dev",
    "methods": {},
    "version": 1
  },
  "userdoc": {
    "kind": "user",
    "methods": {},
    "version": 1
  }
}